:100000000C94FB030C9423040C9423040C942304FD
:100010000C9423040C9423040C9423040C942304C4
:100020000C9423040C9423040C94F60B0C94680C8D
:100030000C9423040C9423040C9423040C942304A4
:100040000C9423040C9447110C9423040C94230463
:100050000C9423040C9423040C9423040C94C310D8
:100060000C9423040C9423040C9423040C94230474
:100070000C9423040C9423040C9423040C94230464
:100080000C9423040C9423040C9423040C94230454
:100090000C9423040C9423040C9423040C94230444
:1000A0000C9423040C9423040C9423043306390683
:1000B0003F064B065706AC06AC06AC0663066F0659
:1000C0007B0687069506AC069E067E0F810F840F81
:1000D000870F8A0F8D0F900F930F960FD30FD60FA8
:1000E000C50FC90FCF0FF70FF70FF70FDA0FDE0F9E
:1000F000E20FE80FEC0FF70FF20F0101FF03010110
:10010000F703FE00FA00D5F08D14A1C881CFD9F114
:10011000AF200003053F213F1208120A100A0E1CEF
:100120000E0C1E0C141A14161F161E131E1E1B1E58
:100130001E1F1E3F213F3A2F3A173D173F213F1800
:100140001F02040A041F0E04040E1F0A1F0A0E0ECB
:100150001F04110E2E252E2F2A2E262929021F02BA
:10016000081F08150E04040E150E15151B151B048B
:100170000604040C040000000017000300031F0A1B
:100180001F16371A1904130A153A000300000E113E
:10019000110E000A040A040E0400300004040400D6
:1001A00010001804031F111F121F101D1517111521
:1001B0001F07041F17151D1F151D01011F1F151FE8
:1001C00017151F000A00003200040A110A0A0A115A
:1001D0000A040115020E11171E051E1F150A0E1125
:1001E0000A1F110E1F15111F05010E111D1F041FDF
:1001F000111F1108100F1F041B1F10101F061F1EB8
:10020000040F0E110E1F09060E112E1F051A1215CE
:1002100009011F011F101F0F180F1F0C1F1B041BAC
:10022000031C03191513001F11030418111F0002EA
:1002300001022020200001020C121E1F120C0C12C1
:10024000120C121F0C1A14041E05242A1E1F021C55
:10025000141D1020201D1F0814111F101E041E1E27
:10026000021C0C120C3E0A040C123E1E0402141650
:100270000A020F120E101E0E100E1E081E120C1275
:1002800026281E322A26041E21001F00211E0401DA
:1002900002013F213F050089300802380249786891
:1002A00014000045006801000005003801680100E5
:1002B000001753440016137800161314001510206D
:1002C0000015201000540A03E181867F3E186D83DB
:1002D0000F0F0E0183866033186DC3198F1803C387
:1002E0008E6033186DE330CF1803C39E603630CD77
:1002F000E360CF3006C79E7E3E30CDB360CF300C7A
:10030000C6F6603330D9B660CF33CFCCF66061B07B
:10031000DB1E60CF30D86CE6C061B0DB1E618F1988
:10032000986CC6C063B19B0E330F0FB078C6FF7ECA
:100330001F1B061E0F0048300000000000000000D8
:1003400000000000000000003FC0000000000000AE
:10035000003FC0000000000000000200000092000A
:100360000400000000000131000600000000000150
:10037000FF000F0000080000017D001680000C0047
:1003800000007C007FE00016000000CE003E400030
:100390002D00010082005FE0005F80FF008200E727
:1003A000B0000C00FF0082007E60000C0020008284
:1003B000009FF0001E0000000001EEC800000000D9
:1003C000000000FFF000000000000000FFF000004F
:1003D00000000000036F3C00000000010000060068
:1003E0000000000003FE0006000000000003FE0005
:1003F0000F0000000000000C0000000000000000E2
:100400000C000000000000000000000000000000E0
:1004100000000000000000000000000000000000DC
:1004200004000000000000000004000000000000C4
:1004300000000600000000000000000D0000004069
:10044000008180000D00180040388186003FC018F0
:100450000040248006001F803CFBC920B386002F8B
:100460004024C2491CE1860074E03CC64904E18690
:10047000003FC024C24924B180004F2066C3CF3C56
:1004800093E600F6F0000000000000007FE00000AE
:100490000000000001B6D8000000000000000000CD
:1004A000000000000000000000000000000000004C
:1004B000000060052000602060000050070420520A
:1004C0002052772075052670572055225055052655
:1004D000405420450050770525706720477770030A
:1004E0000000000000000000080A0818FFBDBD66FB
:1004F00044241209080A1018FFBDBD24A54281003A
:10050000080A4A99FFBD3C6684844221080A4A9938
:10051000FFBD3C66424242422020204E6577204289
:1005200065737421004D0020202020426573743AC9
:1005300020004D0055703A20526573756D65204757
:10054000616D650020423A205265736574204869E8
:1005500067682053636F72650020413A20546974C4
:100560006C652053637265656E00502041205520F4
:100570005320452044002055703A2043616E636546
:100580006C00412B423A20436F6E6669726D002EFB
:100590002E2E61726520796F7520737572653F002C
:1005A000524553455420484947482053434F5245EC
:1005B00000080B000202020100090400000102020F
:1005C0000000052400100105240101010424020695
:1005D00005240600010705810310004009040100FD
:1005E000020A00000007050202400000070583021E
:1005F0004000000403090412010002EF020140411F
:1006000023368000010102030141726475696E6F37
:10061000204C4C430041726475696E6F204C656FCD
:100620006E6172646F004D79206E65636B210057B7
:100630006879206D653F002E2E2E68656C70004D28
:1006400079206261636B21004D79206C65677321AD
:1006500000446F6821004F7563682E004D65646922
:100660006321004F6F6F66210010100100018003AD
:10067000C005A01FF80F9017F839EC1F9827FC7BD6
:10068000B23FFCDBCF0180018003C010100180036A
:10069000C005A003C007A009D00FF81DD003E019C2
:1006A000B42FE817F83DE40180018003C010100169
:1006B0000003C007E003F007E00FF00FF81FF00F92
:1006C000E01FF03FF81FF83FFC0180018003C010DD
:1006D000100080018003C007E01FF80FF01FF83FF3
:1006E000FC1FF83FFC7FFE3FFCFFFF018001800301
:1006F000C0080810183C72DB7E183C080808183C3B
:100700007EFF7E183C080810182C5ABF18183C08A9
:100710000808183C7EFF18183C080440FFFF020838
:100720000400FFFF08080401FFFF20080410FFFF7A
:100730000200000000240027002A002D00300000E5
:10074000000000250028002B002E003100F6E8DB19
:10075000CFC3B8AEA49B928A827B746E68625C57EA
:10076000524E4945413E3A3734312E2C2927252314
:10077000211F1D1C1A1917161514131211100F0E14
:100780000D0C0B0A090807060000000023002600D4
:1007900029002C002F0004040404040304050202B1
:1007A000020204030202020206060606060604040A
:1007B000020202040404080201104080401020409C
:1007C0008040800802040180402010020110801047
:1007D000204040200000000200090F000003040137
:1007E000000C0000000000000000000000000000FD
:1007F00000000000A01E11241FBECFEFDAE0DEBF14
:10080000CDBF11E0A0E0B1E0EAEAFFE302C005904D
:100810000D92AE39B107D9F729E0AEE9B1E001C0D8
:100820001D92AB3BB207E1F713E0CBEFD3E004C07E
:100830002197FE010E94B41FCA3FD107C9F70E9449
:10084000AC1C0C94D31F0C940000EAEAF1E0168A69
:10085000108E178A128211821482138216821582D8
:1008600010861782799684E0EA3CF80781F70895AC
:10087000089580E090E008951F93CF93DF931F9237
:10088000CDB7DEB7682F192F80E090E069830E9412
:100890001B1F6981681721F080E090E00E94231FF0
:1008A00081E090E00E941B1F181749F0612F81E042
:1008B00090E00F90DF91CF911F910C94231F0F9028
:1008C000DF91CF911F910895E0ECF1E080E090E09E
:1008D000208121110CC029E1289FF001299FF00DF2
:1008E0001124E655FE4F81E0868BCF0108950196D5
:1008F00079968032910561F780E090E00895CF937A
:1009000080E090E00E941B1FC82F81E090E00E94D1
:100910001B1F282F30E0322F2227C9018C0F911D79
:100920009093A00180939F011092A3011092A201C5
:100930000E946404FC01892B41F18FE998E0908FBB
:10094000878B8CE390E0948783878BE190E0968798
:1009500085871786108A83E0818B8CE095E09283EF
:10096000818380E095E09483838384EF94E0968391
:10097000858388EE94E090878783108212861186A3
:10098000128A138A80E1848B158AF093A901E0937F
:10099000A801CF910C942E148091A2019091A301F3
:1009A0000E940C1B62E375E08DE399E00E94980EB3
:1009B0002091A2013091A30180919F019091A0010B
:1009C000821793071CF468E175E00EC067E275E0DA
:1009D0008DE399E00E94980E80919F019091A00173
:1009E0000E940C1B65E275E08DE399E00C94980E73
:1009F0008091A2019091A30120919F013091A001CB
:100A00002817390714F40E943C040E9425040C9412
:100A10007F048F929F92AF92BF92CF92DF92EF921C
:100A2000FF920F931F93CF93DF9382E38093630929
:100A300081E090E0A0E0B0E080935C0990935D09D4
:100A4000A0935E09B0935F09C1E0C0931A09C093F7
:100A500019098FEF8093620984E18093F90882E19C
:100A60008093FA0883E18093FB0885E18093FC087A
:100A700087E08093FD0888E08093FE081092FF08CD
:100A80000E941016C0934C0910924D09C093420960
:100A9000C0934309E3E1F1E0E491EF5FE09344099F
:100AA000E4E1F1E0E491EF5FE093450985E191E055
:100AB00090934B0980934A09CFB7F89480919E0197
:100AC000811127C0E7EAF7E08491E6ECF7E0949122
:100AD000E82FF0E0EE0FFF1FEF5CF84FA591B49107
:100AE000EC91E92321F461E081E10E94F80F61E0DB
:100AF00081E10E9428108CB580618CBD8CB580642A
:100B00008CBD61E08FE00E94281061E080E10E94CE
:100B1000281080919E018F5F80939E01CFBF8CB57E
:100B20008C7F8CBD8DB581608DBD61E084E00E94BD
:100B3000281061E08CE00E94281061E086E00E94AD
:100B4000281061E086E00E94F80F61E070E080E02C
:100B500090E00E94891060E086E00E94F80F6AE051
:100B600070E080E090E00E94891061E086E00E94E1
:100B7000F80FE2EAF7E0E491F0E0EE0FFF1FE15C2E
:100B8000F84F8591949190934F0980934E09EAE92B
:100B9000F7E0E491F0E0EE0FFF1FE15CF84F859184
:100BA00094919093510980935009E1ECF7E0E4911E
:100BB000E0935209E9EBF7E0E491E09353090E94D6
:100BC000EF15C6E0D1E01C2F135FFE0184910E9457
:100BD000271421961C13F9CFE0915009F091510987
:100BE000908180915309892B8083E0914E09F09187
:100BF0004F09908180915209809589238083C0E0BC
:100C0000D4E080E00E9427142197D9F781E08093F7
:100C1000180984E080933C0982E091E090932409D4
:100C20008093230940E060E084E199E00E940D1187
:100C300061E085E00E94281061E08DE00E942810AC
:100C400061E085E00E942810E9EDF7E0E4918E2F45
:100C500090E0FC013197EF30F10508F07DC0EA5AD1
:100C6000FF4F0C94B41F84B5806884BD81E087BDBC
:100C700077C084B5806284BD81E088BD71C08091F9
:100C8000800080688093800081E090E090938900EC
:100C90008093880065C0809180008062809380008E
:100CA00081E090E090938B0080938A0059C08091FE
:100CB000800088608093800081E090E090938D00B8
:100CC00080938C004DC0809190008068809390004C
:100CD00081E090E0909399008093980041C08091CA
:100CE000900080628093900081E090E090939B0060
:100CF00080939A0035C08091900088608093900026
:100D000081E090E090939D0080939C0029C08091A9
:100D1000C00080688093C0008091C0008F7B80936A
:100D2000C00081E08093CF001BC08091C000806232
:100D30008093C00081E08093D00012C08091C200F7
:100D400088608093C2008091C2008B7F8093C20034
:100D500081E08093D20004C060E085E00E94F80F3B
:100D600080919100887F816080939100F894109227
:100D7000800010928100109285001092840088E11A
:100D800091E0909389008093880080918100886031
:100D900080938100809181008160809381008091A7
:100DA0006F00826080936F00789480910109813098
:100DB00091F45C9885EA8EBD00000DB407FEFDCF6E
:100DC0005C9A8091640080628093640081E083BFBC
:100DD000889513BEFCCF80910509813019F41092DB
:100DE000190919C080E00E948B1B85E992E090935D
:100DF000220980932109109227091092260981E087
:100E00008093150989E080932A0910922D09109288
:100E10002F091092310980916209882309F4F0C0EA
:100E20001092070981E080934309109242091092C1
:100E3000410980934C0980934D09C5E3D3E003EA4F
:100E400012E089E0F82E0E947D168823E1F3FE016E
:100E50008491882319F0E090450901C0E12C25EC2C
:100E600032E040E060E28DE399E00E948D1140E1C4
:100E70004E0D26E333E060E18DE399E00E948D1191
:100E800080E1809346098093470965E373E08DE331
:100E900099E00E94980E80914409982F990F890F2C
:100EA000819581588093460980914509982F990F23
:100EB000890F8195835C809347098091540984FF51
:100EC00003C061EC72E002C06DEB72E08DE399E06B
:100ED0000E94BC0E80914409982F990F890F81952B
:100EE000815880934609809147098F5F8093470915
:100EF00080911909882319F069EB72E002C065EB53
:100F000072E08DE399E00E94BC0E80914409982F15
:100F1000990F890F819581588093460980914709DF
:100F20008F5F8093470961EB72E08DE399E00E9447
:100F3000BC0EE0900509F1E0EF1224C08091190980
:100F40008F5F082E000C990B60911A0970E06F5F9B
:100F50007F4F0E94A01F8093190980E00E948B1B85
:100F60001093220900932109109227091092260953
:100F7000E0921509F0922A0910922D0910922F097A
:100F800010923109809104098130B9F08091620991
:100F9000482F50E060E070E080905409909055092F
:100FA000A0905609B090570984169506A606B70674
:100FB00008F449CF8F3F09F446CF8FEF8093620941
:100FC00080E00E948B1B1092150980E00E948B1B11
:100FD00089EA92E0909322098093210910922709CF
:100FE0001092260981E08093150999E090932A09CF
:100FF00010922D0910922F09109231098093070940
:10100000809164008E7F8093640087EC80937C00E5
:1010100080E280937B0062E070E080E090E00E94DC
:10102000891080917A00806480937A0080917A00A0
:1010300086FDFCCFC0917800D0917900C095D09505
:101040008EE580937C0062E070E080E090E00E949A
:10105000891080917A00806480937A0080917A0070
:1010600086FDFCCF00917800109179000E946410F9
:101070009B01AC01209530954095509500951095B9
:101080000C9FD0010D9FB00D1C9FB00D11240E942C
:10109000501F6B017C010E9464106C0D7D1D8E1D24
:1010A0009F1D611571058105910511F00E94121FA8
:1010B00080916400816080936400E0ECF1E0AAEA32
:1010C000B1E01082EF012D97188221961882589670
:1010D0001C921E92579712961C921E92119714966C
:1010E0001C921E92139716961C921E921597189694
:1010F0001C921E9217972896188221961882219684
:101100001882219618827996599684E0AA3CB807ED
:10111000C1F61092A7011092A6011092A50110929B
:10112000A401DF91CF911F910F91FF90EF90DF907D
:10113000CF90BF90AF909F908F900C947F04EF92D0
:10114000FF920F931F93CF93DF93EC0129898D8535
:101150009E85820F911D9E878D8718821A868091A9
:10116000020981508E3F78F48A8981110CC0288948
:10117000243009F012C183E088838B859C85820F1F
:10118000911D9C878B878091000981508E3F88F448
:101190008A8981110EC02889243009F000C183E0BA
:1011A000888381E08A878B859C85821B91099C8737
:1011B0008B8780910509813021F48DE491E00E94B4
:1011C000C71A8091050981508E3F08F4EAC01A8A37
:1011D00080910409813021F489E391E00E94C71ACB
:1011E0008091040981508E3F08F4E3C082E0888B2F
:1011F00080910109813009F077C085E291E00E9479
:10120000C71A1092A10102E188E2F82E9EE1E92EB0
:1012100013E20E947D168823E1F30E94CC048091A2
:10122000A10100934709882359F11093460960EA08
:1012300075E08DE399E00E94BC0E109346096FE8BB
:1012400075E08DE399E00E94BC0E1093470962E8B7
:1012500075E08DE399E00E94BC0E66E775E08DE3D2
:1012600099E00E94BC0E8091040981508E3F08F4E1
:10127000A5C080910109813061F61092A101C9CF0A
:10128000F09246096AE675E08DE399E00E94BC0E93
:10129000E092470969E575E08DE399E00E94BC0E94
:1012A00064E475E08DE399E00E94BC0E64E375E0B0
:1012B0008DE399E00E94BC0E80910409813029F4ED
:1012C0000E9425040E9409050FC080910509813004
:1012D00011F48093A10180910109813009F099CF27
:1012E00081E191E00E94C71A8A89882329F0815000
:1012F0008A8B82E0888301C01A8A8B89882311F047
:1013000081508B8B8B859C8597FF02C01C861B862A
:101310008B859C85893F910524F088EF90E09C8720
:101320008B878D859E85893C910524F1EAEAF1E061
:1013300080E090E0DC01A655BE4F1F962C911F97D0
:10134000213061F456961C92108E178A12821182F7
:101350001482138216821582108617824996799616
:10136000803223E0920731F78BE190E09E878D87F2
:101370000E942E1429898091A2019091A301820FCD
:10138000911D9093A3018093A201DF91CF911F91B2
:101390000F91FF90EF900C94CC0481E0EDCE81E0B2
:1013A000FFCE8B89811114CF85E08B8B8AE08A8BED
:1013B0000FCF8A8981111ACF84E019CF8091050956
:1013C00081508E3F08F055CF81E08093A10180E0ED
:1013D00090E00E943C041092A3011092A2010E948E
:1013E000F80482CFCF93DF931F92CDB7DEB7698326
:1013F000DC01ED91FC910280F381E02D41E050E0B1
:10140000BE016F5F7F4F09950F90DF91CF910895D7
:1014100083E08093E9008091F200882319F08AE349
:101420008093E8000895FC018485958597FD0BC0A5
:101430009FB7F89482E08093E9008091F2009FBF0B
:1014400090E0019608959FB7F89482E08093E900B8
:101450008091F2009FBF90E008954091CC0450919C
:10146000CD042091CA043091CB0442175307B4F441
:101470009091E8009570E1F39091E80092FD19C019
:101480008093F1008091CC049091CD0401968F73EC
:101490009927892B19F48EEF8093E8008091CC0472
:1014A0009091CD0401969093CD048093CC0481E07B
:1014B000089580E00895CF92DF92EF92FF920F930C
:1014C0001F93CF93DF931F92CDB7DEB7182F062F50
:1014D000E42E862F880F8E5F99830E942D0A83E069
:1014E0000E942D0AF12EC12E9981D92E8C2D8F1993
:1014F000801798F4F601E7FE02C0849101C0808154
:101500000E942D0A182F80E00E942D0A8123FFEFF0
:10151000CF1ADF0A8111EACF01C081E00F90DF917D
:10152000CF911F910F91FF90EF90DF90CF90089592
:10153000DF92EF92FF920F931F93CF93DF93D82EFA
:101540008A017B01E40EF51EEB01CE15DF0571F07B
:10155000D7FE03C0FE01849101C088810E942D0A3C
:1015600021968111F2CF8FEF9FEF01C0C801DF916B
:10157000CF911F910F91FF90EF90DF9008956150F0
:1015800030F02091F100FC0120830196F8CF2898DB
:1015900084E68093D8040895CF92DF92EF92FF9271
:1015A0000F931F93CF93DF936C017A018B01C0E0FF
:1015B000D0E0CE15DF0589F0D8016D918D01D601FF
:1015C000ED91FC910190F081E02DC6010995892BE8
:1015D00011F47E0102C02196ECCFC701DF91CF91BB
:1015E0001F910F91FF90EF90DF90CF9008958F9211
:1015F0009F92AF92BF92CF92DF92EF92FF920F93A2
:101600001F93CF93DF935C016B017A0180910B01F3
:10161000882309F45BC08091D904882309F456C05B
:101620008091D10480FF05C08091E00082608093AA
:10163000E000E70110E00AEF83E0882E9AE3992E9C
:101640002097D9F10E94CA1981110AC0015009F4EA
:101650003DC061E070E080E090E00E948910F0CF32
:10166000282F30E0C217D3070CF48C2F4FB7F89413
:101670008092E9009091E80095FF1DC0282F30E08E
:10168000C21BD30BF601982F915020F081918093CB
:10169000F100FACFC20ED31E112319F09092E80088
:1016A00009C08091E80085FD06C09092E80011E035
:1016B000209709F010E04FBFC3CF1111C3CF5D9841
:1016C00084E68093D0041E141F0444F081E090E06F
:1016D000F5019383828380E090E001C0C701DF9130
:1016E000CF911F910F91FF90EF90DF90CF90BF901F
:1016F000AF909F908F9008950E94CA1990E008952E
:10170000CF93DF931F92CDB7DEB7FC01848595851B
:1017100097FD05C02FEF3FEF358724870BC0CE0123
:1017200001960E94A019019719F4898190E002C0E6
:101730008FEF9FEF0F90DF91CF9108950F931F933D
:10174000CF93DF931F92CDB7DEB78C01FC01848568
:10175000958597FF0EC0CE0101960E94A0190197B2
:1017600019F4298130E002C02FEF3FEFF8013587EF
:101770002487F801848595850F90DF91CF911F9183
:101780000F9108950F931F93CF93DF931F92CDB7BF
:10179000DEB782E0898342E450E061EB75E080E8E7
:1017A0000E94980A0E94DB19DC0112960D911C918F
:1017B00013970115110569F0D801ED91FC91028094
:1017C000F381E02DBE016F5F7F4FC801099597FF40
:1017D00007C089810F90DF91CF911F910F910895DC
:1017E000F80100851185E5CF0E94CE1F1F920F9250
:1017F0000FB60F9211248F939F938091E1009091E7
:10180000E100937F9093E10083FF0FC01092E90005
:1018100091E09093EB001092EC0092E39093ED0036
:101820001092D90498E09093F00082FF20C093E0DA
:101830009093E9009091F200992319F09AE3909324
:10184000E8009091D004992339F09091D004915000
:101850009093D004992389F19091D804992339F079
:101860009091D80491509093D804992341F184FF2A
:1018700010C08091E2008E7E81608093E2008091B2
:10188000E1008F7E8093E1008091D1048E7E8061A3
:1018900011C080FF16C08091E2008E7E806180932F
:1018A000E2008091E1008E7E8093E1008091D1047E
:1018B0008E7E81608093D10404C05D9ACDCF289A3A
:1018C000D6CF9F918F910F900FBE0F901F901895BC
:1018D0001F920F920FB60F921124CF92DF92EF92C8
:1018E000FF920F931F932F933F934F935F936F93A9
:1018F0007F938F939F93AF93BF93EF93FF93CF9378
:10190000DF93CDB7DEB76C97DEBFCDBF1092E90095
:101910008091E80083FFEDC168E0CE0145960E940A
:10192000BF0A82EF8093E8008D8987FF05C0909100
:10193000E80090FFFCCF03C09EEF9093E800982F43
:10194000907609F0C6C09E892F89188D91110CC020
:10195000803829F48091CF048093F10002C0109266
:10196000F1001092F10048C1422F50E0512B91300C
:1019700051F4811141C14130510509F03DC18091BF
:10198000CF048D7F0BC0933061F4811135C141309C
:10199000510509F031C18091CF0482608093CF045A
:1019A0002BC1953041F48091E80080FFFCCF206886
:1019B0002093E30021C1963009F05FC0EB8CFC8CD2
:1019C0001092E9001092CD041092CC04123091F5DF
:1019D0001092CB041092CA040E94C20B99E0BE017F
:1019E0006F5F7F4FDB01E92F1D92EA95E9F799833D
:1019F0001A8391E09E8390EA98879AEF99872091C5
:101A0000CC043091CD04275F3F4F3C832B838D83E3
:101A10001092E9001092CD041092CC04F092CB0405
:101A2000E092CA0449E050E080E00E94980A0E94D7
:101A3000C20BE2C0F092CB04E092CA040E94DB1910
:101A4000DC011296ED90FC901397E114F10409F477
:101A5000C0C0D701ED91FC910480F581E02DBE015D
:101A60006B5E7F4FC7010995009719F00CF0C4C059
:101A7000C7C0F701E084F184E8CF973009F4C0C013
:101A8000983021F481E08093F100B6C0993009F0DC
:101A9000B3C0837009F0B4C0E2E6F1E081E021E078
:101AA00036E39081992361F08093E9002093EB0065
:101AB00091919093EC003093ED008F5F873089F720
:101AC0008EE78093EA001092EA008F898093D90410
:101AD00093C08B8D9C8D1092E9001092CD041092D2
:101AE000CC049093CB048093CA04898D811156C095
:101AF0008E899D89913A59F4813209F081C047E07D
:101B000050E064E071E080E00E94980A75C0913274
:101B100009F076C0833289F4888D90E0982F882769
:101B20002F89822BA0E0B0E0809300019093010107
:101B3000A0930201B09303015FC0803269F48091E9
:101B4000E80082FFFCCF67E084E091E00E94BF0ADA
:101B50008BEF8093E80006C0823209F04DC08F8978
:101B600080930B018091CE04882319F0EEEFFAE008
:101B700002C0E0E0F8E08091040190910501A0919D
:101B80000601B0910701803B9440A105B10509F021
:101B90007BC080910B0180FF93C076C00E94DB194F
:101BA000DC0112960D911C9113970115110541F15D
:101BB000D801ED91FC910190F081E02DBE016B5EAA
:101BC0007F4FC8010995811117C0F8010085118563
:101BD000ECCF113009F44EC0133091F48F89882373
:101BE00009F445C0823081F440E860E185E196E087
:101BF0000E945B0A882321F08EEF8093E80079C071
:101C000081E28093EB0075C0813029F440E86BE0FD
:101C100089E096E0EDCF833099F70E94DB19DC0173
:101C20001296ED90FC9013978E010F5F1F4F680185
:101C3000E114F10479F0D701ED91FC910680F78170
:101C4000E02DB801C7010995080F111DF701E084C7
:101C5000F184EECFD8011C92F60101900020E9F743
:101C60003197BF016C197D0940E0C601C1CF63EF18
:101C700075E002C067EF75E06115710509F2FB01BF
:101C8000449150E080E840CF0FB6F894A895809139
:101C90006000886180936000109260000FBEA8957C
:101CA000EE3F2AE0F20739F08091FE0A9091FF0A98
:101CB00091838083A1CF1092FF0A1092FE0A9CCFDD
:101CC000EE3F8AE0F80731F0808191819093FF0A1E
:101CD0008093FE0A87E797E7918380839BE088E102
:101CE0000FB6F894A895809360000FBE90936000A3
:101CF00083CF6C960FB6F894DEBF0FBECDBFDF91D9
:101D0000CF91FF91EF91BF91AF919F918F917F9173
:101D10006F915F914F913F912F911F910F91FF9084
:101D2000EF90DF90CF900F900FBE0F901F901895FF
:101D3000EF92FF920F931F93CF93DF938C017B0160
:101D4000C0E0D0E0F701EC0FFD1F6491662361F065
:101D5000D801ED91FC910190F081E02DC801099529
:101D6000892B11F02196EECFCE01DF91CF911F91FB
:101D70000F91FF90EF9008950F931F93CF93DF93F0
:101D8000EC010E94980E8C016AE971E0CE010E947C
:101D9000A60F800F911FDF91CF911F910F91089592
:101DA000EF92FF920F931F93CF93DF93A091A8011F
:101DB000B091A90152962C915297211129C0FC0192
:101DC0008081EF01C80FD11DC80FD11DE980FA80B5
:101DD00005851685238534858C91FD01E80FF11D5D
:101DE000E80FF11D418152811D966D917C911E97E6
:101DF0001B968D919C911C970E94EF19882341F0AE
:101E0000E091A801F091A90189E49FE0908F878B70
:101E1000DF91CF911F910F91FF90EF900895EF9276
:101E2000FF920F931F93CF93DF93EC01A091A80132
:101E3000B091A9018881FE01E80FF11DE80FF11DA5
:101E4000E180F2800D851E852B853C858C91FD01FE
:101E5000E80FF11DE80FF11D418152811D966D9132
:101E60007C911E971B968D919C911C970E94EF1957
:101E7000882341F0E091A801F091A90189E49FE055
:101E8000908F878BDF91CF911F910F91FF90EF90F3
:101E90000895CF93DF93EC018C8981508C8B82E085
:101EA000888389870E94CC048D8585509091A401F8
:101EB000891B809347098B859091A601891B80938C
:101EC00046098D8981110EC088E691E00E94C71AEB
:101ED0000E940D1F29E030E040E050E00E94311FD9
:101EE0006F5F6D8BED898E2F90E0FC013197E930AB
:101EF000F10510F5EB59FF4F0C94B41F63E676E043
:101F000017C06CE576E014C066E576E011C061E5C7
:101F100076E00EC068E476E00BC06FE376E008C0C0
:101F200067E376E005C06FE276E002C066E276E045
:101F30008DE399E00E94980E8C89811104C0DF9195
:101F4000CF910C94F804DF91CF910895611571053C
:101F500079F0FB0101900020E9F73197AF01461BB2
:101F6000570BDC01ED91FC910280F381E02D099487
:101F700080E090E0089590E0FC013197EF30F105AA
:101F8000B0F5E259FF4F0C94B41F809180008F7719
:101F900003C0809180008F7D8093800008958091A0
:101FA0008000877FF9CF84B58F7702C084B58F7D9D
:101FB00084BD0895809190008F7707C08091900034
:101FC0008F7D03C080919000877F8093900008955B
:101FD0008091C0008F7703C08091C0008F7D809377
:101FE000C00008958091C200877F8093C200089549
:101FF0001F93CF93DF93282F30E0F901EC52F84F75
:102000008491F901EB54F84FD491F901EA56F84F55
:10201000C491CC23C9F0162F81110E94BB0FEC2F65
:10202000F0E0EE0FFF1FE15CF84FA591B4918FB780
:10203000F894111105C09C91ED2FE095E92302C0A1
:10204000EC91ED2BEC938FBFDF91CF911F91089511
:10205000CF93DF9390E0FC01EB54F84F2491FC0107
:10206000EA56F84F8491882361F190E0880F991F18
:10207000FC01EF5CF84FC591D491FC01E15CF84F95
:10208000A591B491611109C09FB7F89488812095FA
:1020900082238883EC912E230BC0623061F49FB7BA
:1020A000F8943881822F809583238883EC912E2B9E
:1020B0002C939FBF06C08FB7F894E8812E2B2883FE
:1020C0008FBFDF91CF9108953FB7F8948091D404EA
:1020D0009091D504A091D604B091D70426B5A89BC1
:1020E00005C02F3F19F00196A11DB11D3FBFBA2FAA
:1020F000A92F982F8827820F911DA11DB11DBC010A
:10210000CD0142E0660F771F881F991F4A95D1F7CE
:1021100008958F929F92AF92BF92CF92DF92EF92EB
:10212000FF926B017C010E9464104B015C01C114A1
:10213000D104E104F104F1F00E946410DC01CB0150
:1021400088199909AA09BB09883E9340A105B105E0
:1021500070F321E0C21AD108E108F10888EE880E78
:1021600083E0981EA11CB11CC114D104E104F10448
:1021700019F7DDCFFF90EF90DF90CF90BF90AF9039
:102180009F908F9008951F920F920FB60F92112477
:102190002F933F938F939F93AF93BF938091DC08CE
:1021A0009091DD08A091DE08B091DF083091D30452
:1021B00023E0230F2D3720F40196A11DB11D05C08A
:1021C00026E8230F0296A11DB11D2093D30480930E
:1021D000DC089093DD08A093DE08B093DF088091BF
:1021E000D4049091D504A091D604B091D70401965F
:1021F000A11DB11D8093D4049093D504A093D6045F
:10220000B093D704BF91AF919F918F913F912F9140
:102210000F900FBE0F901F90189550E0DA01AA0F93
:10222000BB1FA80FB91F1F963C911F9750962C916A
:102230005097E32FF22FE60FF11DE60FF11D659188
:10224000749190967C936E935F97FB0125913491E6
:10225000FC013481329F202D1124DC01A40FB51F15
:1022600091962C939197FB0185919491E92FF0E041
:10227000822F90E0E817F90720F4FB0185919491F3
:10228000292F239F202D112492962C9308951F927D
:102290000F920FB60F9211242F936F937F938F930A
:1022A0009F936091EC08662371F18091D2048F5F57
:1022B0008093D2049091DA04891728F12091EE08D6
:1022C00081E028272093EE081092D2048091DB044D
:1022D000882369F080910C0193E4899F802D11245B
:1022E000895B80930C010E94941F9093ED08222338
:1022F00041F08091ED0890E09093990080939800D0
:1023000002C080E0F8CF9F918F917F916F912F91C4
:102310000F900FBE0F901F9018953F924F925F92B3
:102320006F927F928F929F92AF92BF92CF92DF92E5
:10233000EF92FF920F931F93CF93DF93F901C49015
:1023400031965491EC013F8440340CF01BC10C2CAD
:10235000000CDD08A62F062E000CBB0B7D01EC0C3B
:10236000FD1C1E141F040CF00DC1A52E842E042E7E
:10237000000C9908F401E50FF11D57FDFA951E16A2
:102380001F060CF0FFC02E5F3F4FE6012796D7FDDA
:10239000279673E0D595C7957A95E1F747FF0AC070
:1023A000A52EA40EC89DA001C99D500D1124241B6B
:1023B000350B40E0EA2D0A2C000CFF0BE40FF11D59
:1023C00047FDFA95E134F1051CF050E4A52EA41A5E
:1023D00067FD60E0F701E138F10514F0E0E8F0E0B6
:1023E0007E2FFC01D484D426862F062E000C990B58
:1023F000FC01EA1BFB0BDF017F01F7E0EF22FF246A
:10240000E0E8F0E002C0F595E795EA94E2F71E2FC8
:10241000B7FD179603E0B595A7950A95E1F72A0F42
:102420003B1FE42FE77051E001C0550FEA95EAF732
:10243000E42FE595E595E5950E2F40E80403800D22
:10244000911D112484529B4FC12C0A2C000CBB08F7
:10245000992493942E015524EC2DF0E0EA15FB0508
:102460000CF090C0F9014491F1E03F121DC07C01D5
:10247000A12FF901862E881AB82DBE0DB71708F0C6
:1024800078C0B42FBA2321F0E701B881B52BB88307
:10249000B0E0B595A795109719F431964491A0E84E
:1024A000DFEFED1AFD0AE8CF31101FC0752E7094D2
:1024B0007C01A12FF901862E881AB82DBE0DB71701
:1024C00008F057C0B42FBA2321F0E701B881B72133
:1024D000B883B0E0B595A795109719F4319644915B
:1024E000A0E8DFEFED1AFD0AE8CFE3E03E1631F099
:1024F0007C01A12FF901862E881A37C0752E7094A1
:10250000862E7C01A12FF9018716D8F4B42FBA23A7
:1025100059F0E701B881682C6D2460FE02C0B52B2C
:1025200002C0B721E701B883B0E0B595A795109731
:1025300019F431964491A0E88394DFEFED1AFD0A77
:10254000E3CFD92416C0B42FBA2321F0E701B88114
:10255000B527B883B0E0B595A795109719F43196D3
:102560004491A0E8DFEFED1AFD0AB82DBE0DB717B4
:1025700050F3550F19F480589F4F51E0C394240D28
:10258000351D6ACFDF91CF911F910F91FF90EF9092
:10259000DF90CF90BF90AF909F908F907F906F9083
:1025A0005F904F903F900895FC0167FD55C0403407
:1025B00008F052C09785342F3770542F5695569592
:1025C0005695A62FB0E09230D1F4242F259525956D
:1025D000259540E82403F0011124E60FF11D67FD65
:1025E000FA95E452FB4F808190E0032E02C095954E
:1025F00087950A94E2F78095982F91700AC09330DE
:1026000041F484858170462740954170841303C04E
:1026100013C0911111C080E8589FA00DB11D112465
:10262000A452BB4F81E090E001C0880F3A95EAF7D1
:1026300080959C9189230FC040E8549FA00DB11D47
:102640001124A452BB4F81E090E001C0880F3A955D
:10265000EAF79C91892B8C930895CF92DF92EF92A9
:10266000FF920F931F93CF93DF936C01E62EC42F3D
:1026700010E0040F111DF62EF20E8C2F90E0801743
:10268000910764F4DE2DDF1539F04C2F6D2FC60154
:102690000E94D412DF5FF7CFCF5FEFCFDF91CF91F2
:1026A0001F910F91FF90EF90DF90CF9008956F9260
:1026B0007F928F929F92AF92BF92CF92DF92EF92D2
:1026C000FF920F931F93CF93DF93EC016A3019F4BD
:1026D00028859E81A5C06D3009F4A8C01E81EA84BA
:1026E000A9849F848FE38E150CF483C08F8190E0C2
:1026F0000197189F9001199F300D1124C9018A0D6F
:10270000911DA7FC9A95181619060CF072C08885C1
:10271000819FC00111248E0D911DE7FC9A9518161A
:1027200019060CF066C0B12CC62ED12CEB2D0B2C4B
:10273000000CFF0B8F8190E0E817F9070CF058C0F0
:102740000197E817F90779F0C89E9001C99E300DEE
:10275000D89E300D1124E20FF31F8D859E85E80F62
:10276000F91F849001C0812C7A2CB19E700C112429
:10277000F12C6B2C6A0C888590E02F2D0F2C000C0F
:10278000330B2817390794F580FE14C0113039F443
:102790004F2D4E0D662DCE010E94D41224C0012F64
:1027A000212F4E2DF19E400D1124672DCE010E9448
:1027B0002D1319C088899F858917A9F08F8711303B
:1027C00039F44F2D4E0D662DCE010E94D4120AC051
:1027D000012F212F4E2DF19E400D1124672DCE018A
:1027E0000E942D139F868694F394C5CFB3949ECFF9
:1027F0009F862E813F818985329F800D1124898794
:102800009D81992399F0082E000C990B40E850E027
:10281000239F401951091124481759073CF4988502
:102820008A85299F800D11248A87198681E090E08E
:10283000DF91CF911F910F91FF90EF90DF90CF909C
:10284000BF90AF909F908F907F906F9008958EBDB6
:1028500000000DB407FEFDCF8EB508952F923F9274
:102860004F925F926F927F928F929F92AF92BF92A0
:10287000CF92DF92EF92FF920F931F93CF93DF934C
:10288000CDB7DEB72A970FB6F894DEBF0FBECDBF27
:102890004AE0242E312C812C912C540193940FE08A
:1028A0001FE064E0462E512C612C712C0E940D1FFC
:1028B00020E730E040E050E00E94311F6B017C01D6
:1028C00020E4C20ED11CE11CF11C0E940D1FA501C9
:1028D00094010E94311F69837A838B839C830E94B9
:1028E00064049E838D830097C1F1FC01108F078BD8
:1028F00029813A8134872387D686C58631E0378798
:10290000108212861186128A0E940D1FA301920165
:102910000E94311F6130710581059105A9F03CF4D9
:10292000672B682B692BC9F42FEC36E012C062309C
:1029300071058105910559F0633071058105910597
:1029400061F429E636E005C02DEA36E002C02BE846
:1029500036E0ED81FE81328321830E940D1F20E746
:1029600030E040E050E00E94311F6B017C0130E418
:10297000C30ED11CE11CF11C0E940D1FA501940186
:102980000E94311F69837A838B839C830E94640435
:102990009E838D830097C1F1FC01108F078B2981E5
:1029A0003A8134872387D686C58631E037871082FF
:1029B00012861186128A0E940D1FA30192010E94A5
:1029C000311F6130710581059105A9F03CF4672B39
:1029D000682B692BC9F42FE037E012C06230710513
:1029E0008105910559F0633071058105910561F408
:1029F00021EF36E005C025E037E002C02BEF36E0DE
:102A0000ED81FE813283218331E0231A310809F000
:102A10004DCF0AE010E080E7C82ED12CE12CF12C3C
:102A2000812C912C5401939420ED222E2EE0322EF5
:102A300034E0432E512C612C712C0E940D1FA701F4
:102A400096010E94311F9B01AC01205C3F4F4F4F0C
:102A50005F4F29833A834B835C830E940D1FA5013E
:102A600094010E94311F6D837E838F8398870E941B
:102A700064049A8789870097D1F1FC01308E278AF8
:102A80002D813E813487238749815A815687458726
:102A900051E05787108212861186128A0E940D1FFC
:102AA000A30192010E94311F6130710581059105DA
:102AB000A9F03CF4672B682B692BC9F42BE237E0B3
:102AC00012C0623071058105910559F063307105BE
:102AD0008105910561F429E137E005C025E237E081
:102AE00002C02FE137E0E985FA8532832183015066
:102AF000110909F0A2CF2A960FB6F894DEBF0FBED7
:102B0000CDBFDF91CF911F910F91FF90EF90DF909C
:102B1000CF90BF90AF909F908F907F906F905F907D
:102B20004F903F902F9008959F92AF92BF92CF9277
:102B3000DF92EF92FF920F931F93CF93DF93F82EC4
:102B4000E62EB22E03E0020FD0E0C3E08AEFC82EDB
:102B50001EEF842F8170982EAA24A394A20E427097
:102B6000D42EDF5F802F8B19180F992081F04C2F06
:102B7000440F4A0D6E2D6C1B8D2F8F0D0E94941CDF
:102B8000402F6E2D6D1B8C2F8F0D0E94941CDD200D
:102B900081F04C2F440F4A0D6E2D6C1B8F2D8D1B19
:102BA0000E94941C402F6E2D6D1B8F2D8C1B0E943C
:102BB000941CDC1744F417FD04C0C150C394C394A3
:102BC0001C0D0E5FCECFDF91CF911F910F91FF9023
:102BD000EF90DF90CF90BF90AF909F900895CF93EC
:102BE000DF93EEE4F9E0C081D1819881A2E5B9E0FC
:102BF0008C91892B8883C0915009D091510998817B
:102C0000809153098095892388830190F081E02D7C
:102C100090818C91809589238083DF91CF91089555
:102C2000CF92DF92EF92FF920F931F93CF93DF9398
:102C3000C9EFD8E000E019E0FF24FA9496E0E92E0D
:102C4000E00E62E088810E942810288130E0F901BE
:102C5000EC52F84F8491F901EB54F84FC490F9010C
:102C6000EA56F84FD490DD2071F081110E94BB0F1D
:102C7000ED2DF0E0EE0FFF1FE857F84FA591B4914E
:102C8000EC91EC2131F5F80180818F5F808360E069
:102C900088810E94281021960F5F1F4FE012D1CF2C
:102CA000909100099150809106099E3F38F49091CF
:102CB000020991509E3F10F48F5F08C08823A1F055
:102CC0008F3F19F4109206090FC08FEF8093060909
:102CD0000BC0F80180818823F1F2F8018F3F11F4D5
:102CE0001082D5CFF082D3CFDF91CF911F910F917A
:102CF000FF90EF90DF90CF900895CF92DF92EF9208
:102D0000FF920F931F93CF93DF931F92CDB7DEB740
:102D10004091640950916509609166097091670955
:102D20002FB7F8948091DC089091DD08A091DE081F
:102D3000B091DF082FBF481B590B6A0B7B0B8091AA
:102D4000630990E0A0E0B0E000915C0910915D099A
:102D500020915E0930915F0984179507A607B70790
:102D600030F4011511052105310509F09EC280E0FE
:102D7000012B022B032B09F0D9C20E94AC1B8091BE
:102D80001509882309F4ADC0809129098111A9C0D2
:102D90008091210990912209E0912609F09127095B
:102DA000EE0FFF1FE80FF91F259134912115310512
:102DB000F1F420912509222331F010922709109275
:102DC0002609FC0112C0109215098091140988236C
:102DD00041F080E00E94AC1BE0912609F0912709A8
:102DE0002DC080E00E948B1B7CC025913491C901CD
:102DF000969587959695879520FF53C0B901B6E0C3
:102E000076956795BA95E1F76F71932F969596959C
:102E1000969590518F70823081F108F5811117C01D
:102E20006B3008F06AE060932A09E0912609F0917E
:102E300027093196F0932709E0932609EE0FFF1F2B
:102E40008091210990912209E80FF91FCECF81309E
:102E500061F740E084E199E00E940D11E6CF8330F4
:102E6000B1F0843011F780911809689F602D11240A
:102E70006093310990933209D8CF80911809689FE7
:102E8000602D112460932D0990932E09CECF80914F
:102E90001809689F602D112460932F0990933009C1
:102EA000C4CF8F738093280980911809839F802D48
:102EB000112480932909109239091092380910922F
:102EC000370981E080932B098093EE0810922C093A
:102ED0008091260990912709019690932709809364
:102EE000260980912B09882309F4E3C080912909E0
:102EF000811103C00E948B1BDCC081508093290983
:102F000080913909811146C02091370930913809E3
:102F10002F5F3F4FC901880F991FE0913309F0914E
:102F20003409E80FF91F65917491862F877080939B
:102F30003A09AB0163E0569547956A95E1F7CA01F6
:102F400096958795972F9695969590933B098F73B5
:102F500090911809899F802D11248093390941701F
:102F60004093DB0430933809209337098091350969
:102F700090E02817390770F020913609222339F0A4
:102F8000821B9109909338098093370903C080E030
:102F90000E948B1B8091390981508093390980915F
:102FA0002C0921E0280F20932C0940912809309109
:102FB0003B09340F80912009380F30931609609136
:102FC0002F09662371F070E0822F022E000C990BFE
:102FD0000E94A01F80913009869F300D11243093EC
:102FE00016098091160990E0CB966BE370E00E9481
:102FF000A01F8093160930912A0930931709609118
:103000002D09662381F0062E000C770B822F022EED
:10301000000C990B0E94A01F80912E09869F300DF5
:10302000112430931709609131096623A1F0822F92
:10303000220F990B70E00E94A01FCB0162E070E0AC
:103040000E94A01F2091320990911709289F900D8E
:10305000112490931709809117098A3014F089E0A0
:1030600002C087FD80E04F3319F08093170902C03A
:1030700010921709F894E0911609F0E0E35BF84F1D
:10308000E491E093DA0480913C0990911909899FB9
:10309000802D112490911709899F802D11249091E2
:1030A0003A09899F802D11248093EC088093ED08C4
:1030B000789480916809882309F48FC08C3020F4BB
:1030C0009CE0E92EE81A01C0E12CFF24F394F09271
:1030D000430910924C0910924D09309145098DE336
:1030E000D82E1D2D131B1E0D03E0030F2EE4412FC0
:1030F00063E08DE399E039830E942D1339810CEF51
:10310000030F1D5F202F41E0612F80E50E94941581
:10311000202F42E0612F83E00E949415F0924C0929
:10312000F0924D090091450913E0100FD01ADE0C02
:1031300023E04D2D622F8DE399E029830E94D41264
:1031400029812F5F2135A9F71D0DFF24FA94F10E77
:1031500023E04F2D622F8DE399E029830E94D41242
:1031600029812F5F2135A9F7035023E0D20E402F8C
:103170006D2D80E00E94941C402F6D2D83E50E94F0
:10318000941C41E06D2D83E00E94161C42E06D2DE1
:1031900080E50E94161C145044E0612F80E50E94D7
:1031A000161C48E0612F83E00E94161C84E0809387
:1031B000460980914509E81A8E2D815C8093470964
:1031C0006091690970916A098DE399E00E94980EF7
:1031D00080916809815080936809809149098F5FC7
:1031E000809349090CED14E0C12C0E94EF1582E296
:1031F0000E9427148C2D0E94271487E00E94271418
:1032000081E20E94271480E00E9427148FE70E9429
:103210002714E0915009F091510990818091530950
:10322000892B8083E0914E09F0914F099081809124
:1032300052098095892380837801D12CD7018D9103
:103240007D010E942714D394B0E8DB12F7CFC3941A
:1032500000581F4FE8E0CE12C8CF8091410981117C
:103260000EC080E094E0ECEDF4E0DF019C011D92E3
:1032700021503040E1F710924609109247090E9410
:10328000641060935C0970935D0980935E0990936C
:103290005F092091580930915909621B730B709393
:1032A00061096093600980E041C02FB7F894809174
:1032B000DC089091DD08A091DE08B091DF082FBFF7
:1032C00020916309820F911DA11DB11D8093640996
:1032D00090936509A0936609B0936709809154099A
:1032E00090915509A0915609B09157090196A11DD9
:1032F000B11D8093540990935509A0935609B0933A
:10330000570910925C0910925D0910925E091092A3
:103310005F090E9464106093580970935909809363
:103320005A0990935B090E94101681E00F90DF917B
:10333000CF911F910F91FF90EF90DF90CF90089564
:10334000FC018091D904811103C08FEF9FEF089594
:103350009FB7F89482E08093E9002091F20030E07A
:103360001216130614F421E030E02115310559F04E
:10337000289884E68093D8048091F100808380911E
:10338000F200882319F09FBFC90108958BE680934E
:10339000E800F9CF2FB7F89483E08093E90090918B
:1033A000E800892F807295FF04C09091F20080E4BC
:1033B000891B2FBF08958091E40881110DC082E020
:1033C0008093E00884E08093E1081092E308109273
:1033D000E20881E08093E40880EE98E008954F923F
:1033E0005F926F927F928F929F92AF92BF92CF9295
:1033F000DF92EF92FF920F931F93CF93DF93FA0127
:10340000A490B12C3196A491F701B4913196E49136
:103410003C016A0C7B1C26153705A4F46901CB0E10
:10342000D11C8C159D0574F4B0E04B018A0E9B1ED7
:10343000081519053CF4E801CE0FD11DFE016C17EB
:103440007D0714F080E092C0821793070CF08BC0C8
:103450002901481A590A6017710724F4E801C61BAC
:10346000D70B02C0C0E0D0E06C147D041CF0560104
:10347000A81AB90A8E169F061CF0DF01A61BB70B0F
:103480001C2FC0E8D0E0782E721A862E801A612F89
:1034900070E06A177B07B4F6042DC82CC10ED12C3E
:1034A000802F90E08A159B050CF059C0FA012491F9
:1034B000FC0133E0F595E7953A95E1F7329630E077
:1034C000295F3F4F83E0359527958A95E1F7629F05
:1034D000C001639F900D729F900D1124E80FF91F9A
:1034E000E40FF51FE491F0E0802F87709E0102C089
:1034F000359527958A95E2F7E223F323EF2B69F1BF
:10350000F7012491972C900EE92DF0E083E0F595DA
:10351000E7958A95E1F7329630E0295F3F4F93E0D7
:10352000359527959A95E1F7C29EC001C39E900DEF
:10353000D29E900D1124E80FF91FEE0DFF1DE491AE
:10354000F0E0892D87709E0102C0359527958A95F8
:10355000E2F7E223F323EF2B21F40F5FA1CF1F5FEC
:1035600096CF81E003C0412C512C75CFDF91CF91D4
:103570001F910F91FF90EF90DF90CF90BF90AF9091
:103580009F908F907F906F905F904F900895CF9312
:10359000DF93EC0188818B3008F08AE080932A0960
:1035A00040E06A8184E199E00E940D112E818091B2
:1035B00018099C81989F902D112490932D09209398
:1035C0002E092A859885989F902D112490932F0974
:1035D000209330092E859C85989F902D11249093DF
:1035E0003109209332099A89288920932809989FC4
:1035F000802D1124809329091092390910923809DD
:103600001092370981E080932B098093EE08109285
:103610002C09DF91CF9108958F929F92AF92BF9224
:10362000CF92DF92EF92FF920F931F93CF93DF938E
:10363000CDB7DEB7A1970FB6F894DEBF0FBECDBFF2
:103640006C01990FEE08FF08F7FE33C0E0913D09C9
:10365000F0913E090190F081E02D6DE28DE399E05B
:1036600009958C0122273327A9012C193D094E0900
:103670005F0919A2CE0181967C019AE0892E912CD6
:10368000A12CB12CCA01B901A50194010E94631FAC
:10369000605DF70162937F012115310541055105F8
:1036A00089F7BF018DE399E00E94A60F800F911F5B
:1036B0001FC0A701960119A28E010F5D1F4F8AE05E
:1036C000C82ED12CE12CF12CCA01B901A701960119
:1036D0000E94631F605DF80162938F01211531051F
:1036E0004105510589F7BF018DE399E00E94A60FBE
:1036F000A1960FB6F894DEBF0FBECDBFDF91CF917C
:103700001F910F91FF90EF90DF90CF90BF90AF90FF
:103710009F908F90089590E0FC01E151F74F14AE17
:1037200012AEDC01AA0FBB1FAE5EB64F96961C927E
:103730001E92959715AEFC01E351F74F1082FC01E4
:10374000E451F74F1082FC01E251F74F10821092C2
:103750009900109298000895AF92BF92CF92DF9295
:10376000EF92FF920F931F93CF93DF93C82ED12C2C
:10377000E601C151D74F9DA1992309F44CC07E01A8
:103780009FEFE91AF90AF70195A1911144C09EA58E
:103790008601000F111F0151174FF80134A525A50F
:1037A000E32FF22FE90FF11DE90FF11D259134915F
:1037B0002F3FFFEF3F0711F41DA22DC039ABF601DB
:1037C000EE0FFF1FE750F74F3327220F331F05A0DF
:1037D000F6A1E02DE20FF31FA590B490811117C060
:1037E0000E948B1BF801B3AAA2AAF601EE0FFF1FDD
:1037F000EF5FF64F16A215A281E0F70185A389E0DD
:103800008BAF1EAEFE017B9615A2329615A22996AD
:103810008DA18F5F8DA3DF91CF911F910F91FF90AD
:10382000EF90DF90CF90BF90AF900895AF92BF928E
:10383000CF92DF92EF92FF920F931F93CF93DF937C
:10384000182F062FC1E0D3E08AEFD82E9EEFE92E85
:10385000842F8470C82E842F8270B82E842F887095
:10386000A82E4170F42E8C2F880F8F5FE80ECC208D
:1038700081F04D2F400F6C2F610F8DE399E00E9476
:10388000D4124C2F400F6D2F610F8DE399E00E94F1
:10389000D412BB2081F0402F4D1B6C2F610F8DE3A4
:1038A00099E00E94D412402F4C1B6D2F610F8DE3C5
:1038B00099E00E94D412AA2081F04C2F400F612F72
:1038C0006D1B8DE399E00E94D4124D2F400F612FA4
:1038D0006C1B8DE399E00E94D412FF2081F0402FF1
:1038E0004C1B612F6D1B8DE399E00E94D412402F79
:1038F0004D1B612F6C1B8DE399E00E94D412CD17F4
:1039000044F4E7FC04C0D150D394D394ED0CCF5FC2
:10391000AACFDF91CF911F910F91FF90EF90DF9091
:10392000CF90BF90AF9008950F931F93CF93DF93E5
:10393000182F062FD42FC0E0CD174CF44C2F400F7A
:10394000612F8DE399E00E94D412CF5FF5CFDF9114
:10395000CF911F910F910895CF93DF93CDB7DEB72D
:103960002D970FB6F894DEBF0FBECDBF789484B507
:10397000826084BD84B5816084BD85B5826085BD6B
:1039800085B5816085BD80916E00816080936E00F9
:1039900010928100809181008260809381008091EB
:1039A000810081608093810080918000816080939C
:1039B00080008091910082608093910080919100BD
:1039C000816080939100809190008160809390004D
:1039D0008091C10084608093C1008091C1008260A9
:1039E0008093C1008091C10081608093C10080916B
:1039F000C30081608093C3008091C0008260809387
:103A0000C0008091C20081608093C20080917A00E2
:103A1000846080937A0080917A00826080937A003B
:103A200080917A00816080937A0080917A0080682A
:103A300080937A001092D9041092CF041092D1048E
:103A40008091D70081608093D70080EA8093D8006E
:103A500089B5806189BD89B5826089BD09B400FEE0
:103A6000FDCF61E070E080E090E00E9489108091DD
:103A7000D8008F7C80618093D8008091E000807FA7
:103A80008093E0008091E1008E7E8093E1008DE0E4
:103A90008093E200559A209AEEEFFFE7859194918A
:103AA0008B3F9C4D19F481E08093CE040E94090560
:103AB0000E947D16811107C080E090E0892BC1F340
:103AC0000E940000F5CF4AEAE42E41E0F42E87017F
:103AD000D80156968C915697882341F05796ED91D0
:103AE000FC915897309711F0C8010995075E1F4F58
:103AF000B4E00A3C1B0761F7E091A801F091A9012D
:103B000086898823B9F1838594858054910997FD2E
:103B100005C09093A7018093A60104C01092A7014D
:103B20001092A6018091A6019091A701813891057C
:103B300034F020E830E03093A7012093A60185857A
:103B40009685469797FD05C09093A5018093A401A3
:103B500004C01092A5011092A4018091A40190913B
:103B6000A501813C910534F040EC50E05093A50153
:103B70004093A40130ECC32E31E0D32E812C912C44
:103B8000D6018C91882309F4CCC0F7012081F9E19A
:103B9000F89DC001F99D900D1124820F911D820F97
:103BA000911DFC01E655FE4FA180B280A114B10425
:103BB00009F4B7C0F6013C97808131971081D70195
:103BC0001D964C901D979091A401491A1B963C900C
:103BD0009091A601391A11110AC0811108C09501EE
:103BE000442D632D8DE399E00E948D119AC0F5015B
:103BF000949131960491692E712C9301295F3F4F66
:103C0000A90123E0559547952A95E1F75A83498301
:103C1000137091509D87292E1C867FEF700F202FE7
:103C200030E038872F833C85432F330F550B4615E3
:103C300057050CF076C04C8547FD495F4595459585
:103C400045959C85977897FF03C09150986F9F5F2B
:103C500020E830E002C0359527959A95E2F73C833D
:103C60002B83372F512C042E000C550BDA011296A2
:103C7000BE83AD83452D052C000C550BAF81B88557
:103C80004A175B070CF048C0A981BA814A9FF0012E
:103C90004B9FF00D5A9FF00D11244D815E81E40F72
:103CA000F51FEA0DFB1DE491F0E0AB81BC81EA2336
:103CB000FB23EF2B71F1123039F0133041F011304A
:103CC00049F4422D652D08C0622D432F05C0632F96
:103CD0004C8502C0452D6C85882369F0582F5370A0
:103CE00080FF03C02D85261B622F81FF05C0802F1A
:103CF000841B482F01C050E0440D630D8DE399E013
:103D00003A8759877B870E94D4125985852F7B85F6
:103D10003A8553943150AECF2C852F5F2C872A944F
:103D200082CF4FEF841A940A59E1C50ED11C89E164
:103D3000E80EF11C90E28916910409F021CFBCCE67
:103D4000EBE6F9E01382128288EE93E0A0E0B0E0A7
:103D500084839583A683B78380E891E091838083F1
:103D60008FEF9FEF958784871092400910923F094B
:103D700082E991E090933E0980933D0908958F92E6
:103D80009F92AF92BF92CF92DF92EF92FF92CF932A
:103D9000DF93EC01688179818A819B8161157105CE
:103DA0008105910521F464E279ED8BE597E02DE141
:103DB00033EF41E050E00E94311F49015A019B015D
:103DC000AC01A7EAB1E40E94501F6B017C01ACEE8C
:103DD000B4EFA50194010E945E1FDC01CB018C0DA4
:103DE0009D1DAE1DBF1DB7FF03C00197A109B048BF
:103DF00088839983AA83BB83BC01CD019F77DF9120
:103E0000CF91FF90EF90DF90CF90BF90AF909F90B9
:103E10008F9008950E94BF1E08958DE091E00E944A
:103E2000BF1E089560930D0170930E0180930F01E2
:103E3000909310010895F999FECF92BD81BDF89A33
:103E4000992780B50895262FF999FECF1FBA92BD04
:103E500081BD20BD0FB6F894FA9AF99A0FBE01966B
:103E60000895052E97FB1EF400940E94481F57FDED
:103E700007D00E94631F07FC03D04EF40C94481F28
:103E800050954095309521953F4F4F4F5F4F089586
:103E900090958095709561957F4F8F4F9F4F0895B6
:103EA0000E94851FA59F900DB49F900DA49F800D2B
:103EB000911D11240895B7FF0C94501F0E94501FAC
:103EC000821B930B0895A1E21A2EAA1BBB1BFD01B6
:103ED0000DC0AA1FBB1FEE1FFF1FA217B307E407E9
:103EE000F50720F0A21BB30BE40BF50B661F771F41
:103EF000881F991F1A9469F7609570958095909521
:103F00009B01AC01BD01CF010895A29FB001B39FF9
:103F1000C001A39F700D811D1124911DB29F700DD2
:103F2000811D1124911D0895991B79E004C0991FEA
:103F3000961708F0961B881F7A95C9F78095089503
:103F400097FB072E16F4009407D077FD09D00E9446
:103F5000BA1F07FC05D03EF4909581959F4F0895B8
:103F6000709561957F4F0895EE0FFF1F0590F491B6
:103F7000E02D0994AA1BBB1B51E107C0AA1FBB1F60
:103F8000A617B70710F0A61BB70B881F991F5A95E5
:103F9000A9F780959095BC01CD01089581E090E04E
:0A3FA000F8940C94D31FF894FFCF9F
:103FAA00FFFFFFFF00E10000000000000101000028
:103FBA000009000000000000000400FBFF000000F0
:103FCA00003C000600090000000000000004000593
:103FDA00000000000037000600090001000100FF90
:103FEA00FF0100FEFF0000000010000400090000AD
:103FFA00000100FFFF01000200000000001700049A
:10400A000000C18081000000090001000100FFFFDB
:10401A000000000000000000000006000000000090
:10402A00F209F70A7C0B080A130A800B9E0B0000A0
:0E403A0000005713CC0A390438040D0A0000A8
:00000001FF
